{
  "_format": "hh-sol-artifact-1",
  "contractName": "ERC1155CrossChain",
  "sourceName": "contracts/ERC1155.sol",
  "abi": [
    {
      "inputs": [
        {
          "internalType": "address",
          "name": "gateway_",
          "type": "address"
        },
        {
          "internalType": "address",
          "name": "gasReceiver_",
          "type": "address"
        },
        {
          "internalType": "string",
          "name": "uri_",
          "type": "string"
        }
      ],
      "stateMutability": "nonpayable",
      "type": "constructor"
    },
    {
      "inputs": [],
      "name": "AlreadyInitialized",
      "type": "error"
    },
    {
      "inputs": [],
      "name": "InvalidAddress",
      "type": "error"
    },
    {
      "inputs": [],
      "name": "InvalidAddressString",
      "type": "error"
    },
    {
      "inputs": [],
      "name": "NotApprovedByGateway",
      "type": "error"
    },
    {
      "anonymous": false,
      "inputs": [
        {
          "indexed": true,
          "internalType": "address",
          "name": "account",
          "type": "address"
        },
        {
          "indexed": true,
          "internalType": "address",
          "name": "operator",
          "type": "address"
        },
        {
          "indexed": false,
          "internalType": "bool",
          "name": "approved",
          "type": "bool"
        }
      ],
      "name": "ApprovalForAll",
      "type": "event"
    },
    {
      "anonymous": false,
      "inputs": [
        {
          "indexed": false,
          "internalType": "string",
          "name": "sourceChain",
          "type": "string"
        },
        {
          "indexed": false,
          "internalType": "string",
          "name": "sourceAddress",
          "type": "string"
        }
      ],
      "name": "FalseSender",
      "type": "event"
    },
    {
      "anonymous": false,
      "inputs": [
        {
          "indexed": true,
          "internalType": "address",
          "name": "operator",
          "type": "address"
        },
        {
          "indexed": true,
          "internalType": "address",
          "name": "from",
          "type": "address"
        },
        {
          "indexed": true,
          "internalType": "address",
          "name": "to",
          "type": "address"
        },
        {
          "indexed": false,
          "internalType": "uint256[]",
          "name": "ids",
          "type": "uint256[]"
        },
        {
          "indexed": false,
          "internalType": "uint256[]",
          "name": "values",
          "type": "uint256[]"
        }
      ],
      "name": "TransferBatch",
      "type": "event"
    },
    {
      "anonymous": false,
      "inputs": [
        {
          "indexed": true,
          "internalType": "address",
          "name": "operator",
          "type": "address"
        },
        {
          "indexed": true,
          "internalType": "address",
          "name": "from",
          "type": "address"
        },
        {
          "indexed": true,
          "internalType": "address",
          "name": "to",
          "type": "address"
        },
        {
          "indexed": false,
          "internalType": "uint256",
          "name": "id",
          "type": "uint256"
        },
        {
          "indexed": false,
          "internalType": "uint256",
          "name": "value",
          "type": "uint256"
        }
      ],
      "name": "TransferSingle",
      "type": "event"
    },
    {
      "anonymous": false,
      "inputs": [
        {
          "indexed": false,
          "internalType": "string",
          "name": "value",
          "type": "string"
        },
        {
          "indexed": true,
          "internalType": "uint256",
          "name": "id",
          "type": "uint256"
        }
      ],
      "name": "URI",
      "type": "event"
    },
    {
      "inputs": [
        {
          "internalType": "address",
          "name": "account",
          "type": "address"
        },
        {
          "internalType": "uint256",
          "name": "id",
          "type": "uint256"
        }
      ],
      "name": "balanceOf",
      "outputs": [
        {
          "internalType": "uint256",
          "name": "",
          "type": "uint256"
        }
      ],
      "stateMutability": "view",
      "type": "function"
    },
    {
      "inputs": [
        {
          "internalType": "address[]",
          "name": "accounts",
          "type": "address[]"
        },
        {
          "internalType": "uint256[]",
          "name": "ids",
          "type": "uint256[]"
        }
      ],
      "name": "balanceOfBatch",
      "outputs": [
        {
          "internalType": "uint256[]",
          "name": "",
          "type": "uint256[]"
        }
      ],
      "stateMutability": "view",
      "type": "function"
    },
    {
      "inputs": [],
      "name": "contractId",
      "outputs": [
        {
          "internalType": "bytes32",
          "name": "",
          "type": "bytes32"
        }
      ],
      "stateMutability": "pure",
      "type": "function"
    },
    {
      "inputs": [
        {
          "internalType": "bytes32",
          "name": "commandId",
          "type": "bytes32"
        },
        {
          "internalType": "string",
          "name": "sourceChain",
          "type": "string"
        },
        {
          "internalType": "string",
          "name": "sourceAddress",
          "type": "string"
        },
        {
          "internalType": "bytes",
          "name": "payload",
          "type": "bytes"
        }
      ],
      "name": "execute",
      "outputs": [],
      "stateMutability": "nonpayable",
      "type": "function"
    },
    {
      "inputs": [
        {
          "internalType": "bytes32",
          "name": "commandId",
          "type": "bytes32"
        },
        {
          "internalType": "string",
          "name": "sourceChain",
          "type": "string"
        },
        {
          "internalType": "string",
          "name": "sourceAddress",
          "type": "string"
        },
        {
          "internalType": "bytes",
          "name": "payload",
          "type": "bytes"
        },
        {
          "internalType": "string",
          "name": "tokenSymbol",
          "type": "string"
        },
        {
          "internalType": "uint256",
          "name": "amount",
          "type": "uint256"
        }
      ],
      "name": "executeWithToken",
      "outputs": [],
      "stateMutability": "nonpayable",
      "type": "function"
    },
    {
      "inputs": [],
      "name": "gasService",
      "outputs": [
        {
          "internalType": "contract IAxelarGasService",
          "name": "",
          "type": "address"
        }
      ],
      "stateMutability": "view",
      "type": "function"
    },
    {
      "inputs": [],
      "name": "gateway",
      "outputs": [
        {
          "internalType": "contract IAxelarGateway",
          "name": "",
          "type": "address"
        }
      ],
      "stateMutability": "view",
      "type": "function"
    },
    {
      "inputs": [
        {
          "internalType": "uint256",
          "name": "tokenId",
          "type": "uint256"
        },
        {
          "internalType": "uint256",
          "name": "amount",
          "type": "uint256"
        }
      ],
      "name": "giveMe",
      "outputs": [],
      "stateMutability": "nonpayable",
      "type": "function"
    },
    {
      "inputs": [
        {
          "internalType": "address",
          "name": "account",
          "type": "address"
        },
        {
          "internalType": "address",
          "name": "operator",
          "type": "address"
        }
      ],
      "name": "isApprovedForAll",
      "outputs": [
        {
          "internalType": "bool",
          "name": "",
          "type": "bool"
        }
      ],
      "stateMutability": "view",
      "type": "function"
    },
    {
      "inputs": [
        {
          "internalType": "address",
          "name": "from",
          "type": "address"
        },
        {
          "internalType": "address",
          "name": "to",
          "type": "address"
        },
        {
          "internalType": "uint256[]",
          "name": "ids",
          "type": "uint256[]"
        },
        {
          "internalType": "uint256[]",
          "name": "amounts",
          "type": "uint256[]"
        },
        {
          "internalType": "bytes",
          "name": "data",
          "type": "bytes"
        }
      ],
      "name": "safeBatchTransferFrom",
      "outputs": [],
      "stateMutability": "nonpayable",
      "type": "function"
    },
    {
      "inputs": [
        {
          "internalType": "address",
          "name": "from",
          "type": "address"
        },
        {
          "internalType": "address",
          "name": "to",
          "type": "address"
        },
        {
          "internalType": "uint256",
          "name": "id",
          "type": "uint256"
        },
        {
          "internalType": "uint256",
          "name": "amount",
          "type": "uint256"
        },
        {
          "internalType": "bytes",
          "name": "data",
          "type": "bytes"
        }
      ],
      "name": "safeTransferFrom",
      "outputs": [],
      "stateMutability": "nonpayable",
      "type": "function"
    },
    {
      "inputs": [
        {
          "internalType": "address",
          "name": "operator",
          "type": "address"
        },
        {
          "internalType": "bool",
          "name": "approved",
          "type": "bool"
        }
      ],
      "name": "setApprovalForAll",
      "outputs": [],
      "stateMutability": "nonpayable",
      "type": "function"
    },
    {
      "inputs": [
        {
          "internalType": "bytes4",
          "name": "interfaceId",
          "type": "bytes4"
        }
      ],
      "name": "supportsInterface",
      "outputs": [
        {
          "internalType": "bool",
          "name": "",
          "type": "bool"
        }
      ],
      "stateMutability": "view",
      "type": "function"
    },
    {
      "inputs": [
        {
          "internalType": "string",
          "name": "destinationChain",
          "type": "string"
        },
        {
          "internalType": "address",
          "name": "destinationAddress",
          "type": "address"
        },
        {
          "internalType": "uint256",
          "name": "tokenId",
          "type": "uint256"
        },
        {
          "internalType": "uint256",
          "name": "amount",
          "type": "uint256"
        }
      ],
      "name": "transferRemote",
      "outputs": [],
      "stateMutability": "payable",
      "type": "function"
    },
    {
      "inputs": [
        {
          "internalType": "uint256",
          "name": "",
          "type": "uint256"
        }
      ],
      "name": "uri",
      "outputs": [
        {
          "internalType": "string",
          "name": "",
          "type": "string"
        }
      ],
      "stateMutability": "view",
      "type": "function"
    }
  ],
  "bytecode": "0x60c06040523480156200001157600080fd5b5060405162002a4338038062002a4383398101604081905262000034916200017c565b80836001600160a01b0381166200005e5760405163e6c4247b60e01b815260040160405180910390fd5b6001600160a01b031660805262000075816200008a565b50506001600160a01b031660a05250620002bd565b80516200009f906002906020840190620000a3565b5050565b828054620000b19062000280565b90600052602060002090601f016020900481019282620000d5576000855562000120565b82601f10620000f057805160ff191683800117855562000120565b8280016001018555821562000120579182015b828111156200012057825182559160200191906001019062000103565b506200012e92915062000132565b5090565b5b808211156200012e576000815560010162000133565b80516001600160a01b03811681146200016157600080fd5b919050565b634e487b7160e01b600052604160045260246000fd5b6000806000606084860312156200019257600080fd5b6200019d8462000149565b92506020620001ae81860162000149565b60408601519093506001600160401b0380821115620001cc57600080fd5b818701915087601f830112620001e157600080fd5b815181811115620001f657620001f662000166565b604051601f8201601f19908116603f0116810190838211818310171562000221576200022162000166565b816040528281528a868487010111156200023a57600080fd5b600093505b828410156200025e57848401860151818501870152928501926200023f565b82841115620002705760008684830101525b8096505050505050509250925092565b600181811c908216806200029557607f821691505b60208210811415620002b757634e487b7160e01b600052602260045260246000fd5b50919050565b60805160a051612744620002ff600039600081816102890152610a0201526000818161018e0152818161059e0152818161074b0152610ab601526127446000f3fe6080604052600436106100e75760003560e01c80634e1273f41161008a578063937817a411610059578063937817a4146102de578063a22cb465146102f1578063e985e9c514610311578063f242432a1461035a57600080fd5b80634e1273f41461022a57806360276e2a146102575780636a22d8cc146102775780638291286c146102ab57600080fd5b8063116191b6116100c6578063116191b61461017c5780631a98b2e0146101c85780632eb2c2d6146101ea578063491606581461020a57600080fd5b8062fdd58e146100ec57806301ffc9a71461011f5780630e89341c1461014f575b600080fd5b3480156100f857600080fd5b5061010c610107366004611b7a565b61037a565b6040519081526020015b60405180910390f35b34801561012b57600080fd5b5061013f61013a366004611bbc565b610423565b6040519015158152602001610116565b34801561015b57600080fd5b5061016f61016a366004611be0565b6104c0565b6040516101169190611c46565b34801561018857600080fd5b506101b07f000000000000000000000000000000000000000000000000000000000000000081565b6040516001600160a01b039091168152602001610116565b3480156101d457600080fd5b506101e86101e3366004611ca2565b610554565b005b3480156101f657600080fd5b506101e8610205366004611ec8565b61065f565b34801561021657600080fd5b506101e8610225366004611f76565b610701565b34801561023657600080fd5b5061024a61024536600461201a565b610811565b6040516101169190612122565b34801561026357600080fd5b506101e8610272366004612135565b61094f565b34801561028357600080fd5b506101b07f000000000000000000000000000000000000000000000000000000000000000081565b3480156102b757600080fd5b507f6fd43e7cffc31bb581d7421c8698e29aa2bd8e7186a394b85299908b4eb9b17561010c565b6101e86102ec366004612157565b61096e565b3480156102fd57600080fd5b506101e861030c3660046121cc565b610b22565b34801561031d57600080fd5b5061013f61032c366004612205565b6001600160a01b03918216600090815260016020908152604080832093909416825291909152205460ff1690565b34801561036657600080fd5b506101e8610375366004612233565b610b2d565b60006001600160a01b0383166103fd5760405162461bcd60e51b815260206004820152602a60248201527f455243313135353a2061646472657373207a65726f206973206e6f742061207660448201527f616c6964206f776e65720000000000000000000000000000000000000000000060648201526084015b60405180910390fd5b506000908152602081815260408083206001600160a01b03949094168352929052205490565b60006001600160e01b031982167fd9b67a2600000000000000000000000000000000000000000000000000000000148061048657506001600160e01b031982167f0e89341c00000000000000000000000000000000000000000000000000000000145b806104ba57507f01ffc9a7000000000000000000000000000000000000000000000000000000006001600160e01b03198316145b92915050565b6060600280546104cf9061229c565b80601f01602080910402602001604051908101604052809291908181526020018280546104fb9061229c565b80156105485780601f1061051d57610100808354040283529160200191610548565b820191906000526020600020905b81548152906001019060200180831161052b57829003601f168201915b50505050509050919050565b600085856040516105669291906122d7565b6040519081900381207f1876eed900000000000000000000000000000000000000000000000000000000825291506001600160a01b037f00000000000000000000000000000000000000000000000000000000000000001690631876eed9906105e3908e908e908e908e908e9089908d908d908d90600401612310565b602060405180830381600087803b1580156105fd57600080fd5b505af1158015610611573d6000803e3d6000fd5b505050506040513d601f19601f82011682018060405250810190610635919061236f565b61065257604051631403112d60e21b815260040160405180910390fd5b5050505050505050505050565b6001600160a01b03851633148061067b575061067b853361032c565b6106ed5760405162461bcd60e51b815260206004820152602e60248201527f455243313135353a2063616c6c6572206973206e6f7420746f6b656e206f776e60448201527f6572206f7220617070726f76656400000000000000000000000000000000000060648201526084016103f4565b6106fa8585858585610bd3565b5050505050565b600082826040516107139291906122d7565b6040519081900381207f5f6970c300000000000000000000000000000000000000000000000000000000825291506001600160a01b037f00000000000000000000000000000000000000000000000000000000000000001690635f6970c39061078a908b908b908b908b908b90899060040161238c565b602060405180830381600087803b1580156107a457600080fd5b505af11580156107b8573d6000803e3d6000fd5b505050506040513d601f19601f820116820180604052508101906107dc919061236f565b6107f957604051631403112d60e21b815260040160405180910390fd5b610807878787878787610e46565b5050505050505050565b6060815183511461088a5760405162461bcd60e51b815260206004820152602960248201527f455243313135353a206163636f756e747320616e6420696473206c656e67746860448201527f206d69736d61746368000000000000000000000000000000000000000000000060648201526084016103f4565b6000835167ffffffffffffffff8111156108a6576108a6611d7c565b6040519080825280602002602001820160405280156108cf578160200160208202803683370190505b50905060005b84518110156109475761091a8582815181106108f3576108f36123cd565b602002602001015185838151811061090d5761090d6123cd565b602002602001015161037a565b82828151811061092c5761092c6123cd565b6020908102919091010152610940816123f9565b90506108d5565b509392505050565b61096a33838360405180602001604052806000815250610f0c565b5050565b600034116109be5760405162461bcd60e51b815260206004820152601760248201527f476173207061796d656e7420697320726571756972656400000000000000000060448201526064016103f4565b6109c933838361103c565b60408051336020820152808201849052606080820184905282518083039091018152608090910190915260006109fe306111eb565b90507f00000000000000000000000000000000000000000000000000000000000000006001600160a01b0316630c93e3bb34308a8a8688336040518863ffffffff1660e01b8152600401610a5796959493929190612414565b6000604051808303818588803b158015610a7057600080fd5b505af1158015610a84573d6000803e3d6000fd5b50506040517f1c92115f0000000000000000000000000000000000000000000000000000000081526001600160a01b037f0000000000000000000000000000000000000000000000000000000000000000169350631c92115f9250610af491508a908a9086908890600401612475565b600060405180830381600087803b158015610b0e57600080fd5b505af1158015610652573d6000803e3d6000fd5b61096a338383611443565b6001600160a01b038516331480610b495750610b49853361032c565b610bbb5760405162461bcd60e51b815260206004820152602e60248201527f455243313135353a2063616c6c6572206973206e6f7420746f6b656e206f776e60448201527f6572206f7220617070726f76656400000000000000000000000000000000000060648201526084016103f4565b6106fa8585858585611538565b505050505050505050565b8151835114610c4a5760405162461bcd60e51b815260206004820152602860248201527f455243313135353a2069647320616e6420616d6f756e7473206c656e6774682060448201527f6d69736d6174636800000000000000000000000000000000000000000000000060648201526084016103f4565b6001600160a01b038416610cae5760405162461bcd60e51b815260206004820152602560248201527f455243313135353a207472616e7366657220746f20746865207a65726f206164604482015264647265737360d81b60648201526084016103f4565b3360005b8451811015610dd8576000858281518110610ccf57610ccf6123cd565b602002602001015190506000858381518110610ced57610ced6123cd565b602090810291909101810151600084815280835260408082206001600160a01b038e168352909352919091205490915081811015610d805760405162461bcd60e51b815260206004820152602a60248201527f455243313135353a20696e73756666696369656e742062616c616e636520666f60448201526939103a3930b739b332b960b11b60648201526084016103f4565b6000838152602081815260408083206001600160a01b038e8116855292528083208585039055908b16825281208054849290610dbd9084906124ba565b9250508190555050505080610dd1906123f9565b9050610cb2565b50846001600160a01b0316866001600160a01b0316826001600160a01b03167f4a39dc06d4c0dbc64b70af90fd698a233a518aa5d07e595d983b8c0526c8f7fb8787604051610e289291906124d2565b60405180910390a4610e3e8187878787876116d8565b505050505050565b306001600160a01b0316610e8f85858080601f01602080910402602001604051908101604052809392919081815260200183838082843760009201919091525061188d92505050565b6001600160a01b031614610edf577f03daa0914739c74a32f06993c062b0ec6a2c0b8a39b5a0b8bff2a12ef55b9dc584848686604051610ed29493929190612500565b60405180910390a1610e3e565b60008080610eef84860186612527565b925092509250610bc8838383604051806020016040528060008152505b6001600160a01b038416610f885760405162461bcd60e51b815260206004820152602160248201527f455243313135353a206d696e7420746f20746865207a65726f2061646472657360448201527f730000000000000000000000000000000000000000000000000000000000000060648201526084016103f4565b336000610f9485611a0c565b90506000610fa185611a0c565b90506000868152602081815260408083206001600160a01b038b16845290915281208054879290610fd39084906124ba565b909155505060408051878152602081018790526001600160a01b03808a1692600092918716917fc3d58168c5ae7397731d063d5bbf3d657854427343f4c083240f7aacaa2d0f62910160405180910390a461103383600089898989611a57565b50505050505050565b6001600160a01b0383166110b85760405162461bcd60e51b815260206004820152602360248201527f455243313135353a206275726e2066726f6d20746865207a65726f206164647260448201527f657373000000000000000000000000000000000000000000000000000000000060648201526084016103f4565b3360006110c484611a0c565b905060006110d184611a0c565b60408051602080820183526000918290528882528181528282206001600160a01b038b16835290522054909150848110156111735760405162461bcd60e51b8152602060048201526024808201527f455243313135353a206275726e20616d6f756e7420657863656564732062616c60448201527f616e63650000000000000000000000000000000000000000000000000000000060648201526084016103f4565b6000868152602081815260408083206001600160a01b038b81168086529184528285208a8703905582518b81529384018a90529092908816917fc3d58168c5ae7397731d063d5bbf3d657854427343f4c083240f7aacaa2d0f62910160405180910390a4604080516020810190915260009052611033565b604051606082811b6bffffffffffffffffffffffff191660208301529060009060340160408051601f198184030181528282528051838301909252601083527f30313233343536373839616263646566000000000000000000000000000000006020840152805190935090919060009061126690600261255c565b6112719060026124ba565b67ffffffffffffffff81111561128957611289611d7c565b6040519080825280601f01601f1916602001820160405280156112b3576020820181803683370190505b509050600360fc1b816000815181106112ce576112ce6123cd565b60200101906001600160f81b031916908160001a905350600f60fb1b816001815181106112fd576112fd6123cd565b60200101906001600160f81b031916908160001a90535060005b8381101561143957826004868381518110611334576113346123cd565b016020015182516001600160f81b031990911690911c60f81c90811061135c5761135c6123cd565b01602001516001600160f81b0319168261137783600261255c565b6113829060026124ba565b81518110611392576113926123cd565b60200101906001600160f81b031916908160001a905350828582815181106113bc576113bc6123cd565b602091010151815160f89190911c600f169081106113dc576113dc6123cd565b01602001516001600160f81b031916826113f783600261255c565b6114029060036124ba565b81518110611412576114126123cd565b60200101906001600160f81b031916908160001a905350611432816123f9565b9050611317565b5095945050505050565b816001600160a01b0316836001600160a01b031614156114cb5760405162461bcd60e51b815260206004820152602960248201527f455243313135353a2073657474696e6720617070726f76616c2073746174757360448201527f20666f722073656c66000000000000000000000000000000000000000000000060648201526084016103f4565b6001600160a01b03838116600081815260016020908152604080832094871680845294825291829020805460ff191686151590811790915591519182527f17307eab39ab6107e8899845ad3d59bd9653f200f220920489ca2b5937696c31910160405180910390a3505050565b6001600160a01b03841661159c5760405162461bcd60e51b815260206004820152602560248201527f455243313135353a207472616e7366657220746f20746865207a65726f206164604482015264647265737360d81b60648201526084016103f4565b3360006115a885611a0c565b905060006115b585611a0c565b90506000868152602081815260408083206001600160a01b038c1684529091529020548581101561163b5760405162461bcd60e51b815260206004820152602a60248201527f455243313135353a20696e73756666696369656e742062616c616e636520666f60448201526939103a3930b739b332b960b11b60648201526084016103f4565b6000878152602081815260408083206001600160a01b038d8116855292528083208985039055908a168252812080548892906116789084906124ba565b909155505060408051888152602081018890526001600160a01b03808b16928c821692918816917fc3d58168c5ae7397731d063d5bbf3d657854427343f4c083240f7aacaa2d0f62910160405180910390a4610bc8848a8a8a8a8a611a57565b6001600160a01b0384163b15610e3e5760405163bc197c8160e01b81526001600160a01b0385169063bc197c819061171c908990899088908890889060040161257b565b602060405180830381600087803b15801561173657600080fd5b505af1925050508015611766575060408051601f3d908101601f19168201909252611763918101906125d9565b60015b61181c576117726125f6565b806308c379a014156117ac5750611787612612565b8061179257506117ae565b8060405162461bcd60e51b81526004016103f49190611c46565b505b60405162461bcd60e51b815260206004820152603460248201527f455243313135353a207472616e7366657220746f206e6f6e2d4552433131353560448201527f526563656976657220696d706c656d656e74657200000000000000000000000060648201526084016103f4565b6001600160e01b0319811663bc197c8160e01b146110335760405162461bcd60e51b815260206004820152602860248201527f455243313135353a204552433131353552656365697665722072656a656374656044820152676420746f6b656e7360c01b60648201526084016103f4565b6000808290506000808251602a1415806118cd5750826000815181106118b5576118b56123cd565b6020910101516001600160f81b031916600360fc1b14155b806118fe5750826001815181106118e6576118e66123cd565b6020910101516001600160f81b031916600f60fb1b14155b1561191c57604051636fa478cf60e11b815260040160405180910390fd5b60025b602a811015611a025783818151811061193a5761193a6123cd565b016020015160f81c915060618210801590611959575060668260ff1611155b156119705761196960578361269c565b91506119d9565b60418260ff1610158015611988575060468260ff1611155b156119985761196960378361269c565b60308260ff16101580156119b0575060398260ff1611155b156119c05761196960308361269c565b604051636fa478cf60e11b815260040160405180910390fd5b60026119e68260296126bf565b60ff8416911b1b92909217916119fb816123f9565b905061191f565b5090949350505050565b60408051600180825281830190925260609160009190602080830190803683370190505090508281600081518110611a4657611a466123cd565b602090810291909101015292915050565b6001600160a01b0384163b15610e3e5760405163f23a6e6160e01b81526001600160a01b0385169063f23a6e6190611a9b90899089908890889088906004016126d6565b602060405180830381600087803b158015611ab557600080fd5b505af1925050508015611ae5575060408051601f3d908101601f19168201909252611ae2918101906125d9565b60015b611af1576117726125f6565b6001600160e01b0319811663f23a6e6160e01b146110335760405162461bcd60e51b815260206004820152602860248201527f455243313135353a204552433131353552656365697665722072656a656374656044820152676420746f6b656e7360c01b60648201526084016103f4565b6001600160a01b0381168114611b7757600080fd5b50565b60008060408385031215611b8d57600080fd5b8235611b9881611b62565b946020939093013593505050565b6001600160e01b031981168114611b7757600080fd5b600060208284031215611bce57600080fd5b8135611bd981611ba6565b9392505050565b600060208284031215611bf257600080fd5b5035919050565b6000815180845260005b81811015611c1f57602081850181015186830182015201611c03565b81811115611c31576000602083870101525b50601f01601f19169290920160200192915050565b602081526000611bd96020830184611bf9565b60008083601f840112611c6b57600080fd5b50813567ffffffffffffffff811115611c8357600080fd5b602083019150836020828501011115611c9b57600080fd5b9250929050565b60008060008060008060008060008060c08b8d031215611cc157600080fd5b8a35995060208b013567ffffffffffffffff80821115611ce057600080fd5b611cec8e838f01611c59565b909b50995060408d0135915080821115611d0557600080fd5b611d118e838f01611c59565b909950975060608d0135915080821115611d2a57600080fd5b611d368e838f01611c59565b909750955060808d0135915080821115611d4f57600080fd5b50611d5c8d828e01611c59565b9150809450508092505060a08b013590509295989b9194979a5092959850565b634e487b7160e01b600052604160045260246000fd5b601f8201601f1916810167ffffffffffffffff81118282101715611db857611db8611d7c565b6040525050565b600067ffffffffffffffff821115611dd957611dd9611d7c565b5060051b60200190565b600082601f830112611df457600080fd5b81356020611e0182611dbf565b604051611e0e8282611d92565b83815260059390931b8501820192828101915086841115611e2e57600080fd5b8286015b84811015611e495780358352918301918301611e32565b509695505050505050565b600082601f830112611e6557600080fd5b813567ffffffffffffffff811115611e7f57611e7f611d7c565b604051611e96601f8301601f191660200182611d92565b818152846020838601011115611eab57600080fd5b816020850160208301376000918101602001919091529392505050565b600080600080600060a08688031215611ee057600080fd5b8535611eeb81611b62565b94506020860135611efb81611b62565b9350604086013567ffffffffffffffff80821115611f1857600080fd5b611f2489838a01611de3565b94506060880135915080821115611f3a57600080fd5b611f4689838a01611de3565b93506080880135915080821115611f5c57600080fd5b50611f6988828901611e54565b9150509295509295909350565b60008060008060008060006080888a031215611f9157600080fd5b87359650602088013567ffffffffffffffff80821115611fb057600080fd5b611fbc8b838c01611c59565b909850965060408a0135915080821115611fd557600080fd5b611fe18b838c01611c59565b909650945060608a0135915080821115611ffa57600080fd5b506120078a828b01611c59565b989b979a50959850939692959293505050565b6000806040838503121561202d57600080fd5b823567ffffffffffffffff8082111561204557600080fd5b818501915085601f83011261205957600080fd5b8135602061206682611dbf565b6040516120738282611d92565b83815260059390931b850182019282810191508984111561209357600080fd5b948201945b838610156120ba5785356120ab81611b62565b82529482019490820190612098565b965050860135925050808211156120d057600080fd5b506120dd85828601611de3565b9150509250929050565b600081518084526020808501945080840160005b83811015612117578151875295820195908201906001016120fb565b509495945050505050565b602081526000611bd960208301846120e7565b6000806040838503121561214857600080fd5b50508035926020909101359150565b60008060008060006080868803121561216f57600080fd5b853567ffffffffffffffff81111561218657600080fd5b61219288828901611c59565b90965094505060208601356121a681611b62565b94979396509394604081013594506060013592915050565b8015158114611b7757600080fd5b600080604083850312156121df57600080fd5b82356121ea81611b62565b915060208301356121fa816121be565b809150509250929050565b6000806040838503121561221857600080fd5b823561222381611b62565b915060208301356121fa81611b62565b600080600080600060a0868803121561224b57600080fd5b853561225681611b62565b9450602086013561226681611b62565b93506040860135925060608601359150608086013567ffffffffffffffff81111561229057600080fd5b611f6988828901611e54565b600181811c908216806122b057607f821691505b602082108114156122d157634e487b7160e01b600052602260045260246000fd5b50919050565b8183823760009101908152919050565b81835281816020850137506000828201602090810191909152601f909101601f19169091010190565b89815260c06020820152600061232a60c083018a8c6122e7565b828103604084015261233d81898b6122e7565b905086606084015282810360808401526123588186886122e7565b9150508260a08301529a9950505050505050505050565b60006020828403121561238157600080fd5b8151611bd9816121be565b8681526080602082015260006123a66080830187896122e7565b82810360408401526123b98186886122e7565b915050826060830152979650505050505050565b634e487b7160e01b600052603260045260246000fd5b634e487b7160e01b600052601160045260246000fd5b600060001982141561240d5761240d6123e3565b5060010190565b60006001600160a01b03808916835260a0602084015261243860a08401888a6122e7565b838103604085015261244a8188611bf9565b9050838103606085015261245e8187611bf9565b925050808416608084015250979650505050505050565b6060815260006124896060830186886122e7565b828103602084015261249b8186611bf9565b905082810360408401526124af8185611bf9565b979650505050505050565b600082198211156124cd576124cd6123e3565b500190565b6040815260006124e560408301856120e7565b82810360208401526124f781856120e7565b95945050505050565b6040815260006125146040830186886122e7565b82810360208401526124af8185876122e7565b60008060006060848603121561253c57600080fd5b833561254781611b62565b95602085013595506040909401359392505050565b6000816000190483118215151615612576576125766123e3565b500290565b60006001600160a01b03808816835280871660208401525060a060408301526125a760a08301866120e7565b82810360608401526125b981866120e7565b905082810360808401526125cd8185611bf9565b98975050505050505050565b6000602082840312156125eb57600080fd5b8151611bd981611ba6565b600060033d111561260f5760046000803e5060005160e01c5b90565b600060443d10156126205790565b6040516003193d81016004833e81513d67ffffffffffffffff816024840111818411171561265057505050505090565b82850191508151818111156126685750505050505090565b843d87010160208285010111156126825750505050505090565b61269160208286010187611d92565b509095945050505050565b600060ff821660ff8416808210156126b6576126b66123e3565b90039392505050565b6000828210156126d1576126d16123e3565b500390565b60006001600160a01b03808816835280871660208401525084604083015283606083015260a060808301526124af60a0830184611bf956fea2646970667358221220305d2206abd2aa8b0035951b0baf8acfb0f6d1dd97bc8e7ef3c79b85c133745664736f6c63430008090033",
  "linkReferences": {},
  "deployedLinkReferences": {}
}